:100000000BC008C007C006C005C004C003C002C0C2
:100010003AC000C018953D01112410E0A0E6B0E000
:10002000E2E5F3E002C005900D92A236B107D9F7E0
:1000300020E0A2E6B0E001C01D92A736B207E1F7CA
:1000400010E0CCE0D0E003C02197FE017CD1CB30A2
:10005000D107D1F7379880E888B9A89588E19DE065
:100060000FB6F894A89581BD0FBE91BD81B580648F
:1000700081BD789485B7877E806185BF85B78062B2
:1000800085BF8895FBCF1F920F920FB60F92112458
:100090002F933F934F935F936F937F938F939F9390
:1000A000AF93BF93EF93FF938091630090916400AF
:1000B000A0916500B0916600815D9D4FAF4FBF4F2D
:1000C0008093630090936400A0936500B0936600F2
:1000D0008091630090916400A0916500B0916600EA
:1000E00081159E42A349B24098F08091630090919F
:1000F0006400A0916500B09166009E52A349B24091
:100100008093630090936400A0936500B0936600B1
:1001100080916200B49903C0882309F49AC08130A9
:1001200009F48EC030F0823049F1833009F48AC07E
:100130008DC08091630090916400A0916500B091A2
:100140006600892B8A2B8B2B19F4109261000FC04B
:1001500060916300709164008091650090916600E9
:1001600020E83EEE46E350E0CCD020936100E091E1
:10017000610081E0EE2309F45EC02DC08091630030
:1001800090916400A0916500B0916600892B8A2B44
:100190008B2B19F4109260001BC06091630070916A
:1001A0006400809165009091660020E63AEE40E0A0
:1001B00050E0A7D0CA01B9012CE330E040E050E0A4
:1001C000A0D025E030E040E050E09BD020936000DC
:1001D000E091600083E0E150EC3008F034C0F0E0E2
:1001E000ED50FF4F09940BC00CC00DC010C011C0E2
:1001F00014C015C016C017C018C019C01CC093E0A9
:100200001BC093E001C096E097BB92E017C096E058
:1002100001C09CE097BB94E011C09CE009C095E050
:10022000F9CF95E009C09AE003C09AE0EDCF99E0DC
:1002300097BB98E003C099E097BB91E098BB07C0DB
:1002400082E001C080E017BA18BA01C08FEF809336
:10025000620081B5806481BDFF91EF91BF91AF9144
:100260009F918F917F916F915F914F913F912F91CE
:100270000F900FBE0F901F901895CF92DF92EF92C4
:10028000FF926091610070E090E080E020E83EEE37
:1002900046E350E01DD06B017C016091600070E08E
:1002A00090E080E020E63AEE40E050E011D0C60E4B
:1002B000D71EE81EF91EC0926300D0926400E0923F
:1002C0006500F0926600FF90EF90DF90CF90089568
:1002D000EE27FF27AA27BB2708C0A20FB31FE41FE2
:1002E000F51F220F331F441F551F9695879577954D
:1002F000679598F37040A9F7009799F7BD01CF0172
:100300000895A1E21A2EAA1BBB1BFD010DC0AA1F56
:10031000BB1FEE1FFF1FA217B307E407F50720F06E
:10032000A21BB30BE40BF50B661F771F881F991FE9
:100330001A9469F760957095809590959B01AC0132
:10034000BD01CF010895EE0FFF1F0590F491E02D40
:0203500009940E
:02035200370969
:00000001FF
