:100000000AC008C007C006C005C004C003C002C0C3
:1000100082C100C01895112410E0A0E6B0E0EAED1E
:10002000F3E002C005900D92A236B107D9F720E0A7
:10003000A2E6B0E001C01D92AD36B207E1F73798F5
:1000400080E888B917BAA89588E19DE00FB6F894C2
:10005000A89581BD0FBE91BD81B5806481BD30D1B1
:10006000789485B7877E806185BF02E089E0F82EAD
:10007000C1E098E0E92E2AE0C22ED5E034E0D32E8C
:100080004CE3842E912CA12CB12C809168008130FE
:1000900009F011C11092680086B380714091690027
:1000A00050916A0060916B0070916C00405D5D4FF3
:1000B0006F4F7F4F4093690050936A0060936B00CD
:1000C00070936C004091690050916A0060916B00E0
:1000D00070916C0041155E426349724098F0409106
:1000E000690050916A0060916B0070916C005E52E3
:1000F000634972404093690050936A0060936B00BB
:1001000070936C0090916700811103C0992309F4EA
:10011000D0C0913009F450C020F0923009F45DC095
:100120009BC08091690090916A00A0916B00B09192
:100130006C00892B8A2B8B2B49F410926100109252
:100140006000109265001092640031C060916900F7
:1001500070916A0080916B0090916C0020E83EEEF7
:1001600046E350E018D120936100609169007091DE
:100170006A0080916B0090916C0020E63AEE40E0BE
:1001800050E009D1CA01B901A501940104D1862F1B
:10019000609360006D2FF3D0292F65E0CED080935F
:1001A00065006D2FECD080936300209364008091F4
:1001B0006100C093620014C08091630020916400CC
:1001C000223030F02150209364009093620008C0E8
:1001D000109264001092620003C08091620039C0E6
:1001E0008E3008F03BC0E82FF0E0E850FF4F099454
:1001F0002CC00CC00EC011C013C014C016C018C053
:100200001AC01BC01CC01EC020C022C083E087BB18
:100210001DC093E097BB08BB22C086E087BB10C01F
:1002200086E001C08CE087BB04C08CE087BB0BC0BC
:10023000D7BBD8BA13C0D7BB09C0C7BA04C0C7BAA6
:1002400008BB0CC0F7BAE8BA09C0F7BAC8BB06C009
:1002500082E017BA18BA03C080E001C082E0809340
:100260006700909166009F5F90936600983218F146
:10027000813009F5109165001093600021D08091C4
:10028000690090916A00A0916B00B0916C0080525F
:100290009C46AB4FBF4F8093690090936A00A09338
:1002A0006B00B0936C001B5F1093650010926400AC
:1002B00002C01092660085B7806285BF8895E5CE42
:1002C000CF92DF92EF92FF926091610070E090E038
:1002D00080E020E83EEE46E350E038D06B017C0140
:1002E0006091600070E090E080E020E63AEE40E04F
:1002F00050E02CD0C60ED71EE81EF91EC092690031
:10030000D0926A00E0926B00F0926C00FF90EF9048
:10031000DF90CF9008951F920F920FB60F92112485
:100320008F9381E08093680081B5806481BD8F9157
:100330000F900FBE0F901F901895002480FD060EA1
:10034000660F11F08695D1F7802D0895EE27FF27CF
:10035000AA27BB2708C0A20FB31FE41FF51F220F57
:10036000331F441F551F969587957795679598F38A
:100370007040A9F7009799F7BD01CF010895991B27
:1003800079E004C0991F961708F0961B881F7A958C
:10039000C9F780950895A1E21A2EAA1BBB1BFD0187
:1003A0000DC0AA1FBB1FEE1FFF1FA217B307E40754
:1003B000F50720F0A21BB30BE40BF50B661F771FAC
:1003C000881F991F1A9469F760957095809590958C
:0A03D0009B01AC01BD01CF010895AF
:0203DA00120906
:00000001FF
