:100000000AC008C007C006C005C004C003C002C0C3
:100010005CC000C01895112410E0A0E6B0E0EAED45
:10002000F3E002C005900D92A236B107D9F720E0A7
:10003000A2E6B0E001C01D92AB36B207E1F73798F7
:1000400080E888B917BAA89588E19DE00FB6F894C2
:10005000A89581BD0FBE91BD81B5806481BD0AD0D8
:10006000789485B7877E806185BF85B7806285BFBC
:100070008895FBCFCF92DF92EF92FF926091610063
:1000800070E090E080E020E83EEE46E350E05ED194
:100090006B017C016091600070E090E080E020E600
:1000A0003AEE40E050E052D1C60ED71EE81EF91ECF
:1000B000C0926700D0926800E0926900F0926A00F6
:1000C000FF90EF90DF90CF9008951F920F920FB6A0
:1000D0000F9211242F933F934F935F936F937F93CE
:1000E0008F939F93AF93BF93CF93EF93FF9386B379
:1000F0008071409167005091680060916900709133
:100100006A00405D5D4F6F4F7F4F40936700509393
:1001100068006093690070936A0040916700509195
:1001200068006091690070916A0041155E42634900
:10013000724098F0409167005091680060916900AA
:1001400070916A005E526349724040936700509319
:1001500068006093690070936A00209166008111C5
:1001600003C0222309F4D2C0213009F44DC020F08D
:10017000223009F45CC09DC08091670090916800B6
:10018000A0916900B0916A00892B8A2B8B2B49F4CE
:10019000109261001092600010926400109263004F
:1001A0002DC0609167007091680080916900909106
:1001B0006A0020E83EEE46E350E0EDD02093610077
:1001C00060916700709168008091690090916A0069
:1001D00020E63AEE40E050E0DED0CA01B9012CE35F
:1001E00030E040E050E0D7D0862F6093600065E0BB
:1001F000C6D0A3D080936400909363008091610087
:1002000091E09093620016C08091640065E0B7D0E1
:1002100090916300923030F091509093630020935E
:10022000620008C0109263001092620003C08091C7
:1002300062003CC08E3008F03EC0E82FF0E0EE5D7A
:10024000FE4F09942DC00CC00DC011C012C013C0C8
:1002500014C015C018C019C01AC01EC021C025C0C6
:1002600083E01FC093E097BB92E098BB25C086E077
:100270000FC086E005C08CE003C08CE00EC085E0B6
:1002800087BB84E010C085E00CC08AE006C08AE02D
:1002900087BB82E088BB10C089E087BB88E003C0D1
:1002A00089E087BB81E088BB06C082E017BA18BA34
:1002B00003C083E001C082E08093660090916500F6
:1002C0009F5F90936500983218F1813009F5C091D5
:1002D0006400C0936000CEDE80916700909168005A
:1002E000A0916900B0916A0080529C46AB4FBF4F0D
:1002F0008093670090936800A0936900B0936A00B0
:10030000CB5FC09364001092630002C0109265003E
:1003100081B5806481BDFF91EF91CF91BF91AF9185
:100320009F918F917F916F915F914F913F912F910D
:100330000F900FBE0F901F901895002480FD060EA1
:10034000660F11F08695D1F7802D0895EE27FF27CF
:10035000AA27BB2708C0A20FB31FE41FF51F220F57
:10036000331F441F551F969587957795679598F38A
:100370007040A9F7009799F7BD01CF010895991B27
:1003800079E004C0991F961708F0961B881F7A958C
:10039000C9F780950895A1E21A2EAA1BBB1BFD0187
:1003A0000DC0AA1FBB1FEE1FFF1FA217B307E40754
:1003B000F50720F0A21BB30BE40BF50B661F771FAC
:1003C000881F991F1A9469F760957095809590958C
:0A03D0009B01AC01BD01CF010895AF
:0203DA00230BF3
:00000001FF
