:100000000AC008C007C006C005C004C003C002C0C3
:100010008CC100C01895112410E0A0E6B0E0EEEE0F
:10002000F3E002C005900D92A236B107D9F720E0A7
:10003000A2E6B0E001C01D92AD36B207E1F73798F5
:1000400080E888B917BAA89588E19DE00FB6F894C2
:10005000A89581BD0FBE91BD81B5806481BD3AD1A7
:10006000789485B7877E806185BF88E2582E12E03C
:1000700009E0C1E098E0792E2AE0622ED5E030E672
:10008000C32E3AEED32EE12CF12C4CE3842E912C8E
:10009000A12CB12C80916800813009F016C110921A
:1000A000680086B380714091690050916A00609148
:1000B0006B0070916C00405D5D4F6F4F7F4F4093C0
:1000C000690050936A0060936B0070936C004091DC
:1000D000690050916A0060916B0070916C0041154D
:1000E0005E426349724098F04091690050916A0005
:1000F00060916B0070916C005E5263497240409356
:10010000690050936A0060936B0070936C0090914B
:100110006700811103C0992309F4D5C0913009F417
:100120004CC020F0923009F464C0A3C080916900F3
:1001300090916A00A0916B00B0916C00892B8A2B82
:100140008B2B49F4109261001092600010926500B0
:10015000109264002FC06091690070916A008091D4
:100160006B0090916C0020E83EEE46E350E01DD11C
:10017000209361006091690070916A0080916B002A
:1001800090916C00A701960110D1CA01B901A50197
:1001900094010BD1862F609360006D2FFAD0292F28
:1001A00065E0D5D0809365006D2FF3D08093630018
:1001B000209364008091610014C0809166008932B0
:1001C00038F080916300109264008F5F8093630029
:1001D0008091630090916400923030F09150909340
:1001E0006400C093620008C0109264001092620024
:1001F00003C0809162003AC08E3008F03CC0E82F06
:10020000F0E0EC5FFE4F09942DC00CC00EC011C091
:1002100013C014C016C018C01BC01CC01DC01FC016
:1002200021C023C083E087BB1EC093E097BB18BBEF
:1002300023C086E087BB11C086E001C08CE087BB8D
:1002400004C08CE087BB0CC0D7BB84E088BB13C064
:10025000D7BB09C067BA04C067BA18BB0CC007BBDC
:1002600078BA09C007BBC8BB06C082E017BA18BA83
:1002700003C080E001C082E0809367009091660037
:100280009F5F90936600993200F181111EC05092D9
:10029000660080916500809360001CD080916900A9
:1002A00090916A00A0916B00B0916C0080529C46C6
:1002B000AB4FBF4F8093690090936A00A0936B008F
:1002C000B0936C0002C01092660085B7806285BF53
:1002D0008895E0CECF92DF92EF92FF92609161001D
:1002E00070E090E080E020E83EEE46E350E038D059
:1002F0006B017C016091600070E090E080E020E69E
:100300003AEE40E050E02CD0C60ED71EE81EF91E93
:10031000C0926900D0926A00E0926B00F0926C008B
:10032000FF90EF90DF90CF9008951F920F920FB63D
:100330000F9211248F9381E08093680081B58064CF
:1003400081BD8F910F900FBE0F901F9018950024C4
:1003500080FD060E660F11F08695D1F7802D089569
:10036000EE27FF27AA27BB2708C0A20FB31FE41F51
:10037000F51F220F331F441F551F969587957795BC
:10038000679598F37040A9F7009799F7BD01CF01E1
:100390000895991B79E004C0991F961708F0961BE1
:1003A000881F7A95C9F780950895A1E21A2EAA1B95
:1003B000BB1BFD010DC0AA1FBB1FEE1FFF1FA21715
:1003C000B307E407F50720F0A21BB30BE40BF50B12
:1003D000661F771F881F991F1A9469F7609570959B
:0E03E000809590959B01AC01BD01CF01089561
:0203EE001209F2
:00000001FF
