:100000000BC008C007C006C005C004C003C002C0C2
:100010003BC000C018955E01112410E0A0E6B0E0DE
:10002000E4EAF3E002C005900D92A236B107D9F7D9
:1000300020E0A2E6B0E001C01D92A836B207E1F7C9
:1000400010E0CCE0D0E003C02197FE01A5D1CB3079
:10005000D107D1F7379880E888B917BAA89588E111
:100060009DE00FB6F894A89581BD0FBE91BD81B5F6
:10007000806481BD789485B7877E806185BF85B7B0
:10008000806285BF8895FBCF1F920F920FB60F92AB
:1000900011242F933F934F935F936F937F938F938D
:1000A0009F93AF93BF93EF93FF93809164009091E0
:1000B0006500A0916600B0916700805D9D4FAF4FD5
:1000C000BF4F8093640090936500A0936600B09347
:1000D00067008091640090916500A0916600B091E6
:1000E000670081159E42A349B24098F08091640058
:1000F00090916500A0916600B09167009E52A3495F
:10010000B2408093640090936500A0936600B09322
:10011000670080916300B49905C0811103C01092FB
:100120006200B8C0813009F48FC030F0823049F1EC
:10013000833009F48BC08EC080916400909165007B
:10014000A0916600B0916700892B8A2B8B2B19F444
:10015000109261000FC06091640070916500809101
:1001600066009091670020E83EEE46E350E0F2D052
:1001700020936100E091610081E0EE2309F45FC00B
:100180002DC08091640090916500A0916600B091AF
:100190006700892B8A2B8B2B19F4109260001BC0EF
:1001A0006091640070916500809166009091670095
:1001B00020E63AEE40E050E0CDD0CA01B9012CE390
:1001C00030E040E050E0C6D025E030E040E050E0D4
:1001D000C1D020936000E091600083E0EE3008F031
:1001E0003AC0F0E0EB50FF4F099429C00CC00DC09D
:1001F0000EC011C012C013C014C017C018C019C05F
:100200001AC01DC024C093E01BC093E001C096E05B
:1002100097BB92E017C096E005C09CE003C09CE04D
:100220000BC095E097BB94E00DC095E009C09AE043
:1002300003C09AE0EDCF99E097BB98E003C099E046
:1002400097BB91E098BB07C082E001C080E017BA7D
:1002500018BA01C08FEF80936300909162009F5F96
:10026000909362009932B0F08230A1F480916400E2
:1002700090916500A0916600B091670080529C4605
:10028000AB4FBF4F8093640090936500A0936600CE
:10029000B093670081B5806481BDFF91EF91BF91FC
:1002A000AF919F918F917F916F915F914F913F910E
:1002B0002F910F900FBE0F901F901895CF92DF9245
:1002C000EF92FF926091610070E090E080E020E8A2
:1002D0003EEE46E350E025D06B017C01609160006A
:1002E00070E090E080E020E63AEE40E050E019D087
:1002F000C60ED71EE81EF91EC0926400D09265009B
:10030000E0926600F0926700C0926400D0926500AF
:10031000E0926600F0926700FF90EF90DF90CF9040
:100320000895EE27FF27AA27BB2708C0A20FB31FF7
:10033000E41FF51F220F331F441F551F9695879505
:100340007795679598F37040A9F7009799F7BD01E5
:10035000CF010895A1E21A2EAA1BBB1BFD010DC0FF
:10036000AA1FBB1FEE1FFF1FA217B307E407F50765
:1003700020F0A21BB30BE40BF50B661F771F881F41
:10038000991F1A9469F760957095809590959B01D7
:10039000AC01BD01CF010895EE0FFF1F0590F49150
:0403A000E02D0994AF
:0203A4000F093F
:00000001FF
