:100000000AC008C007C006C005C004C003C002C0C3
:100010005CC000C01895112410E0A0E6B0E0ECEA46
:10002000F3E002C005900D92A236B107D9F720E0A7
:10003000A2E6B0E001C01D92A836B207E1F71AD0DF
:10004000379880E888B917BAA89588E19DE00FB67F
:10005000F894A89581BD0FBE91BD81B5806481BD26
:10006000789485B7877E806185BF85B7806285BFBC
:100070008895FBCFCF92DF92EF92FF926091610063
:1000800070E090E080E020E83EEE46E350E047D1AB
:100090006B017C016091600070E090E080E020E600
:1000A0003AEE40E050E03BD1C60ED71EE81EF91EE6
:1000B000C0926400D0926500E0926600F092670002
:1000C000FF90EF90DF90CF9008951F920F920FB6A0
:1000D0000F9211242F933F934F935F936F937F93CE
:1000E0008F939F93AF93BF93EF93FF93809164009F
:1000F00090916500A0916600B0916700805D9D4F72
:10010000AF4FBF4F8093640090936500A09366004B
:10011000B09367008091640090916500A0916600A3
:10012000B091670081159E42A349B24098F080913A
:10013000640090916500A0916600B09167009E52A6
:10014000A349B2408093640090936500A093660039
:10015000B093670080916300B49905C0811103C01A
:1001600010926200BFC0813009F48DC030F082303F
:1001700049F1833009F489C08CC08091640090916A
:100180006500A0916600B0916700892B8A2B8B2BAC
:1001900019F4109261000FC06091640070916500C5
:1001A000809166009091670020E83EEE46E350E0C3
:1001B000DBD0209361008091610091E0882309F4F5
:1001C0005DC02AC08091640090916500A091660096
:1001D000B0916700892B8A2B8B2B19F41092600049
:1001E00016C06091640070916500809166009091E6
:1001F000670020E63AEE40E050E0B6D0CA01B9010F
:100200002CE330E040E050E0AFD06093600080919C
:10021000600065E09DD093E08E3008F03BC0E82F91
:10022000F0E0EC5EFE4F099429C00CC00DC00EC07A
:1002300011C012C013C014C017C018C019C01AC012
:100240001DC024C083E01BC083E001C086E087BBE3
:1002500082E017C086E005C08CE003C08CE00BC0D4
:1002600085E087BB84E00DC085E009C08AE003C05B
:100270008AE0EDCF89E087BB88E003C089E087BBD7
:1002800081E088BB07C092E001C090E017BA18BABD
:1002900001C09FEF90936300809162008F5F809315
:1002A00062008932F8F09230E9F4E4DE8091600077
:1002B00065E04ED02BD080936000DCDE809164003E
:1002C00090916500A0916600B091670080529C46B5
:1002D000AB4FBF4F8093640090936500A09366007E
:1002E000B093670081B5806481BDFF91EF91BF91AC
:1002F000AF919F918F917F916F915F914F913F91BE
:100300002F910F900FBE0F901F901895002480FD25
:10031000060E660F11F08695D1F7802D0895EE2711
:10032000FF27AA27BB2708C0A20FB31FE41FF51F92
:10033000220F331F441F551F969587957795679514
:1003400098F37040A9F7009799F7BD01CF01089580
:10035000991B79E004C0991F961708F0961B881F17
:100360007A95C9F780950895A1E21A2EAA1BBB1BA6
:10037000FD010DC0AA1FBB1FEE1FFF1FA217B30771
:10038000E407F50720F0A21BB30BE40BF50B661F87
:10039000771F881F991F1A9469F76095709580954B
:0C03A00090959B01AC01BD01CF010895B8
:0203AC000F0937
:00000001FF
